:020000040800F2
:1000000098040020C900000889160008551200084D
:1000100000000000000000000000000000000000E0
:100020000000000000000000000000008D16000825
:1000300000000000000000008B1600088F1600086A
:10004000DB00000800000000DB000008DB00000807
:10005000DB000008DB000008DB000008DB00000814
:1000600000000000DB000008DB000008DB000008E7
:10007000DB000008DB000008DB00000800000000D7
:10008000DB000008DB00000800000000DB000008C7
:10009000DB000008DB000008DB000008DB000008D4
:1000A000DB000008DB000008DB000008DB000008C4
:1000B000DB0000080348854600F022FB00480047AB
:1000C0007120000898040020044880470448004735
:1000D000FEE7FEE7FEE7FEE7FEE7FEE7D9160008CB
:1000E000B500000830B50B4601460020202201244F
:1000F00009E00D46D5409D4205D31D469540491B5C
:100100002546954040191546521E002DF1DC30BDA4
:10011000F0B51FB40646002082B005464024019188
:1001200000901BE0019922460F46304600F020F86F
:10013000049A059B801A994110D31046194622460D
:1001400000F0E0F9361A8F41019722460120002184
:10015000009F00F0D7F938184D4100902046641EEA
:100160000028DFDC019B00982946324607B0F0BD2D
:1001700010B5202A04DB0846203AD040002110BDEB
:100180000B46D340D0402024A21A91400843194680
:1001900010BDD2B201E00270401C491EFBD2704774
:1001A0000022F6E710B513460A4604461946FFF743
:1001B000F0FF204610BD0000F0B507460846584045
:1001C00087B0C00F049048000E4659004008490807
:1001D000BC1A884105D2384631461E4617460B46A2
:1001E00002465800400810434CD0300D03904005A3
:1001F0005900400D490D0590401A0290402872DACE
:1002000018030121000B090508430190049800928E
:10021000002805D0019952420020884100920190A7
:10022000029840210A1A0199009800F06BF90546DE
:100230000C466B4607CB00F075F9C0197141039A63
:100240000E0D0023D71756401A467A40164344D065
:10025000049A002A2DD0029A012A039A15DC12056D
:10026000C01A914101263605001C7141D20F059E2E
:10027000D2070093019202962A46234600F072F9B3
:1002800007B0F0BD38463146FAE71605224A0F4658
:10029000B218C01AB74101210905001C4F410018CE
:1002A0007F41114618187941E20F10436D196441DE
:1002B00013E0E2076D0815436408C2071443039A6C
:1002C00001261205C01A91413605001C7141CE0766
:1002D000400830434908C01851412A46234600F0DF
:1002E00034F9CDE7FFE7049801224000C117121A44
:1002F00000238B4104983146C417381AA141EEE718
:1003000030B40124E407634030BC55E730B4012425
:10031000E407614030BC4FE70000E0FFF0B51FB4D8
:1003200088B00B990998002448400999C00F4900EA
:1003300049080991C0070B990090490049080B91A1
:1003400009990898A64608431CD00B990A980843B7
:1003500018D0099801244000420D4800410D099829
:1003600024050003000B204309900B980003000BA9
:1003700020430B9050181C4940180022019014464D
:10038000104605E0002001460DB0F0BD032801DA5B
:10039000034600E003239C46C11A0AAE0AE05F0050
:1003A00008ADED5B4F00F75B7D430027AA187C4149
:1003B000491C5B1E6145F2DD410004AB5A52210429
:1003C000120C0A43240C401C0828DFDB0198029021
:1003D0000099704601910090059B049A0799069830
:1003E00000F0C0F8D0E700000DFCFFFFF0B50C46B0
:1003F0005C4085B0E40FE40703944C0000266408D9
:1004000059009446490802460296224321D062468A
:100410000A431ED06200570D4A000E032303550DF8
:10042000012402462C492405781B1B0B360B40186F
:1004300023432643614600901C46501AB44103D31F
:100440000098401C009002E0921800985B41002840
:1004500003DA0020014605B0F0BD002001210905A6
:100460000746864611E064461D46141BB54106D377
:100470006546521BB341744607430C43A646CD075D
:1004800040084908284392185B4105460D43EAD1CC
:100490001046184313D06046194650407140084337
:1004A00006D06046101AB34106D20122002306E0AE
:1004B00000220123DB0702E00122D24353100098FF
:1004C00074460105381C6141029C039D0019694175
:1004D00000F03BF8BFE70000FD0300000EB5C217B7
:1004E000C10F5040CA0740180021054B02930192EA
:1004F00000910A460B4600F035F803B000BD00003D
:100500003304000010B5202A04DB0146203A914054
:10051000002010BD914020239C1A0346E34019435C
:10052000904010BD10B5202A06DBCB170846203AB4
:100530001041C1170B4306E00B461341D040202465
:10054000A21A91400843194610BD10B5002B08DAD5
:100550000024401C614192185B411A4301D14008BC
:10056000400010BDF0B51FB482B005460C0003D0AA
:10057000084601F037FA02E001F034FA2030024672
:10058000009021462846FFF7BDFF049B059A0446CC
:100590000F4618431143084314D0184610431BD08C
:1005A000009840210A1A18460599FFF7E1FD054613
:1005B0000E46009A05990498FFF7A4FF084305D05A
:1005C000012004E02046394607B0F0BD0020C117E5
:1005D00005430E432C43374300990E986305401A98
:1005E0007905E40A00220C43FD0A0A3002D50020F6
:1005F0000146E9E70105101969410C9C0D9D0019A0
:100600006941FFF7A2FFDFE770B54B005B080343CA
:100610000BD04B005C0D002633466542B341D41726
:10062000AD1AA34102DB0020014670BD120530184F
:10063000514170BDFEB500231A461B1A8A4103DBE7
:100640000020014603B0F0BD4A000D0301212D0B2F
:100650000905520D0D43D10702D100186D41521EFC
:100660005110FF31FF310131002704463E46384624
:10067000009701910246012100200905FFF778FD4E
:10068000C3197141F818324684468E464A41614684
:100690002846611A904104D36046241A9541764653
:1006A0001F46241900986D41401C00903428E1DD5C
:1006B000F91930467041091BA84103D20022D243E8
:1006C000134601E00022134601980105381C7141D0
:1006D000FFF73BFFB6E7000010B5002904DB01245B
:1006E000E40740428C412146002B04DB1C460123D9
:1006F000DB075242A341994200D1904210BD000055
:10070000064C0125064E05E0E36807CC2B430C3C64
:1007100098471034B442F7D3FFF7D0FCC82D000837
:10072000E82D000870B5044600F0B2F80546601CDC
:1007300002D004480078241800F0AAF8401BA04218
:10074000FAD370BD00000020F8B500238DE001242D
:100750009C40A44622407DD04C68022C01D0122C33
:100760000CD1DC08A40027183C6A5D07ED0E0F26AB
:10077000AE40B4430E69AE4026433E6205685E005B
:100780000324B4400F79A543BF07BF0FB7402F43E1
:1007900007604D68012D05D0022D03D0112D01D029
:1007A000122D0ED18568CF68A543B7402F438760CF
:1007B00047686546AF430D79ED06ED0F9D403D431B
:1007C0004560C568A5438C68B4402C43C4604C6840
:1007D000E40049D5284CA56901263543A561A469E3
:1007E0009D0834400094254CAD002F19BC689D072E
:1007F0002E0F0F25B540AC430925ED06A84201D1C7
:1008000000250FE01E4DA84201D101250AE01D4D33
:10081000A84201D1022505E01B4DA84201D10325C4
:1008200000E00525B5402543BD60184C25684E689D
:100830009543F60300D51543256065684E689543DA
:10084000B60300D515436560A5684E689543F6026A
:1008500002D500E008E01543A560E5684E689543C1
:10086000B60200D51543E5605B1C0A681446DC40FF
:1008700000D06CE7F8BD000000100240000001400D
:100880000004004800080048000C00480004014033
:10089000014880687047000000000020024881681D
:1008A00002788918816070470000002010B5064862
:1008B0000168102211430160002000F007F800F0E9
:1008C00027F8002010BD00000020024070B504464B
:1008D0000D4D7D202978C000FFF704FC01460B4830
:1008E0000068FFF7FFFB00F0B3FA002809D1042CE1
:1008F00007D200222146401E00F01EF800206C6046
:1009000070BD012070BD0000000000200C00002020
:1009100008B508488169012211438161816911404C
:100920000091C26901040A43C261C0690840009095
:1009300008BD00000010024010B501F099F810BD8C
:10094000F8B50F46060059D03A4D2868C007C00FC9
:10095000B84209D228684008400038432860286817
:10096000C007C00FB84249D13068334C81070CD55D
:10097000400704D560680721090208436060606889
:10098000F0218843B168084360603078C00726D002
:10099000706801280ED0216802280ED0890700292E
:1009A0002CDA61688908890001436160FFF770FFF4
:1009B00000900DE021688903F1E78901EFE7FFF777
:1009C00067FF0099411A1D48814201D90320F8BDF3
:1009D00060680C210840716889008842EFD128685E
:1009E000C007C00FB8420BD9286840084000384300
:1009F00028602868C007C00FB84201D00120F8BDA8
:100A00003078400706D56068072109028843F168FD
:100A10000843606000F018F86168094A0906090F88
:100A2000515CC840074908600020FFF74FFF0020D5
:100A3000F8BD0000002002400010024088130000B2
:100A4000402C00080C00002010B514A30FCB88B078
:100A50006C460FC415A30FCB0FC4184A51680C2065
:100A60000B4603401648042B16D0082B14D18B02DA
:100A70001B0F6C46E45CD26A04AB1207120F9A5C3F
:100A8000C90305D500231946FFF742FB214601E0C3
:100A900020460C4900F0BDFF08B010BD020304055C
:100AA000060708090A0B0C0D0E0F101001020304B3
:100AB00005060708090A0B0C0D0E0F100010024066
:100AC00000127A0000093D00FEB5040070D02078C5
:100AD000DC4DC0074AD068680007800F012807D0A6
:100AE00068680007800F022809D16868C00306D52E
:100AF000286880033AD560680028E7D036E061684E
:100B0000012914D001208004002901D0052914D026
:100B10002A68012109048A432A60296881432960DF
:100B20006068002816D0FFF7B3FE06460EE028687E
:100B30000121090408432860F2E72968014329607C
:100B4000F5E7FFF7A5FE801B64286ED828688003B0
:100B5000F7D50BE0FFF79CFE064604E0FFF798FE92
:100B6000801B6428F1D828688003F7D420780126F8
:100B7000800700283CDA68680007800F07D06868A3
:100B80000007800F022809D16868C00306D42868CE
:100B9000800716D5E06801280AD112E0E068002835
:100BA000286816D030432860FFF772FE074605E03C
:100BB00043E1FFF76DFEC01B0228C6D828688007F6
:100BC000F7D52868F82188432169C90008432860BF
:100BD0000EE0400840002860FFF75AFE074604E098
:100BE000FFF756FEC01B0228AFD828688007F7D44D
:100BF0002078000722D5E0690028686A0ED03043CB
:100C00006862FFF745FE074604E0FFF741FEC01BA0
:100C100002289AD8686A8007F7D50FE0400840009C
:100C20006862FFF735FE074605E09DE0FFF730FEFE
:100C3000C01B022889D8686A8007F7D42078042767
:100C40004007002860DA00200190E869C00008D45D
:100C5000E969B8060143E961E969014001200091B1
:100C6000019079480168C90511D4016882151143C2
:100C70000160FFF70DFE009005E0FFF709FE009907
:100C8000401A642870D870480068C005F5D5A0687F
:100C900001280AD0002801D0052810D0286A400871
:100CA00040002862286AB84301E0286A304328627D
:100CB000A068002812D0FFF7EBFD00900AE0286A38
:100CC00038432862F1E7FFF7E3FD0099411A5F48D6
:100CD000814249D8286A8007F5D50DE0FFF7D8FD95
:100CE000009006E0FFF7D4FD0099411A5748814271
:100CF0003AD8286A8007F5D40198002804D0E96919
:100D0000012000078143E9612078C00635D560697C
:100D100001280CD0401D686B23D038436863686B92
:100D2000400840006863FFF7B3FD064622E0686BA9
:100D300038436863686B30436863FFF7A9FD064674
:100D400004E0FFF7A5FD801B02285BD8686B8007D5
:100D5000F7D5686BF8218843A169C9000843686327
:100D60000BE0B8436863F4E74CE0FFF791FD801BAC
:100D7000022847D8686B8007F7D4206A00285ED025
:100D800069680907890F022942D001263606022820
:100D9000286805D0B0432860FFF77AFD044633E0A9
:100DA000B0432860FFF774FD074604E0FFF770FDCD
:100DB000C01B022826D828688001F7D4E86AE16AB7
:100DC000000900010843E862616AA06A0843696893
:100DD0003D2212049143084368602868304328602C
:100DE000FFF756FD044604E0FFF752FD001B022802
:100DF00008D828688001F7D521E0FFF749FD001BDE
:100E0000022801D90320FEBD28688001F5D416E030
:100E10000128F8D06868E96A01221204636A024076
:100E20009A420AD10907E26A090F914205D10F21BE
:100E300089040840A16A884201D00120FEBD00203B
:100E4000FEBD00000010024000700040881300004A
:100E5000094910B5401E884201D9012010BD074C38
:100E600060610321081F00F003FE0020A06107203D
:100E70002061002010BD0000FFFFFF0000E000E047
:100E800030B5034620331A7F012A26D001221A7773
:100E90000325CA682D02AA438D6800242A43012530
:100EA000AD02AA434D6800682A430125ED02AA431A
:100EB0000D682A4301252D03AA430D692A43012504
:100EC0006D03AA434D69C9692A430125AD03AA43AD
:100ED0000A4342641C77002030BD022030BD000070
:100EE000F0B502462032137F012B1ED00125157765
:100EF0000223537706687468B3687027BC430F6891
:100F00002743776000680A4CA04205D0094CA042F4
:100F100002D0094CA04204D180244968A34319435C
:100F20008160557700201077F0BD0220F0BD0000F1
:100F3000002C0140000400400040014070B5040056
:100F400005D025462035687F002802D006E0012024
:100F500070BD00202877204600F00AF8022068774C
:100F6000211D206800F0BAFB01206877002070BDC9
:100F700008B50B4A01680B48914205D18269C1143A
:100F80000A438261806907E0074A914206D1C2693B
:100F900002210A43C261C0690840009008BD0000F8
:100FA000002C01400010024000040040F8B5054646
:100FB00004462035287F012817D001262E770220ED
:100FC0006877226890687727FF23B8431B0298430D
:100FD00090600A68502A31D00EDC202A4BD006DC03
:100FE000002A48D0102A3AD145E00220F8BD302A24
:100FF00041D0402A33D136E0602A27D0702A12D05F
:1010000001200003121A2AD0824228D1CB684A68F4
:101010008968206800F0B3FB206881680122920390
:10102000114381601BE0CB684A688968206800F042
:10103000A6FB216888683843886010E0CA68496860
:10104000206800F0ABFC5021206806E0CA684968BF
:10105000206800F0B4FC6021206800F09BFB6E77F4
:1010600000202877F8BDCA684968206800F096FC1F
:1010700040212068F1E711462068EEE770B586B0A0
:10108000044614216846FFF78BF82568164E0124A4
:1010900009200021154A64040223C006B5420DD17F
:1010A00055692543556152690291224005920722F4
:1010B000120201930493009203910FE00C4EB5428B
:1010C0000FD155692543556152690291224005921D
:1010D000C022039101210193009204916946FFF718
:1010E00033FB06B070BD0000002C01400010024030
:1010F00000040040F8B5064604462036307F0D4611
:1011000001280DD001203077022070770427002AB3
:1011100008D0042A16D0082A2AD00C2A4DD137E04C
:101120000220F8BD206800F03DFB2068816908229C
:101130001143816120688169B943816120688169B7
:101140002A6912E0206800F071FB206882690121A1
:10115000C9020A4382612068816901229202914397
:101160008161206881692A6912021143816124E04A
:10117000206800F09BFB2068C26908210A43C26115
:101180002068C169B943C1612068C1692A6912E058
:10119000206800F0CDFB2068C1690122D202114312
:1011A000C1612068C269012189028A43C261206845
:1011B000C1692A6912021143C161012070770020C0
:1011C0003077F8BD70B5040005D025462035687F1E
:1011D000002802D006E0012070BD002028772046BC
:1011E00000F00AF802206877211D206800F076FAE6
:1011F00001206877002070BD7047000010B50446DC
:101200000068012200F0AEFA0E482168814208D041
:101210000D48814205D00D48814202D00C488142E0
:1012200004D1486C0122D2031043486420688168CD
:101230004907490F062903D00168012211430160C3
:10124000002010BD002C014000400140004401403E
:1012500000480140FEE7000010B596B000240F944E
:1012600010941194129413941C2168461494FEF760
:1012700097FF202107A8FEF793FF24482249016029
:101280000221846041600461446121498461C1603C
:10129000FFF754FE012000030F900FA91B48FFF732
:1012A00085FE1A48FFF78EFF139413A9174814946C
:1012B000FFF716FE602005940194009002940394B9
:1012C00004940022694606941048FFF713FF042295
:1012D00069460E48FFF70EFF082269460B48FFF7E4
:1012E00009FF01200794400309940C9008940A9484
:1012F0000B9407A90E940548FFF7C2FD0348FFF7BA
:10130000BDFE16B010BD0000002C014014000020EE
:101310001027000010B58EB000240794089409949B
:101320000A940B941C2168460C94FEF739FF194867
:1013300017490160C82184604160046164218461AF
:10134000C160FFF7FBFD01200003079007A91148CA
:10135000FFF72CFE0F48FFF735FF0B940BA90D4844
:101360000C94FFF7BDFD60200090019402940022D0
:10137000694604940748FFF7BDFE04226946054804
:10138000FFF7B8FE0348FFF779FE0EB010BD00006E
:101390000004004054000020F0B50446C56C006D08
:1013A0008BB0401EFFF79AF800263246A74BFEF797
:1013B000B5FFA74B3246FEF7FFFE042D75DD06464E
:1013C0000F46681FFFF78AF80022A04BFEF7A6FF22
:1013D0000022A04BFEF7F0FE054632463B46039145
:1013E000FFF704F800F036FD9B4A9C4BFEF7E4FE45
:1013F00001230191049000229B072846039900F0E5
:10140000F7FE05460123039100229B07304639462B
:1014100000F0EEFE2A46039BFEF7CEFE01F0ECFB49
:10142000904F05460E4602460B468D483946FEF75C
:10143000DDFF00F00FFD01230391069000229B07C2
:101440008748394600F0D4FE0F4601230890002259
:101450009B072846314600F0CBFE3B46089AFEF734
:10146000ABFE01F0C9FB074602460B460091002087
:101470007D49FEF753FF05460E46012300229B07D8
:101480003846009900F0B4FE02460B46002077492A
:10149000FEF736FF2A463346FEF7A8FF00F0A6FB0C
:1014A00002460B46069873E0FFE70746674E681E44
:1014B0000391FFF713F800223346FEF72FFF0022B7
:1014C0006B4BFEF779FE05460E4602460B46384644
:1014D0000399FEF78BFF00F0BDFC012301910490FE
:1014E00000229B072846314600F082FE05460E4644
:1014F000012300229B073846039900F079FE2A4613
:101500003346FEF759FE01F077FB564F05460E466F
:1015100002460B4652483946FEF768FF00F09AFC37
:1015200003910123089000229B074D48394600F0A3
:101530005FFE07460123069100229B07284631469D
:1015400000F056FE3A46069BFEF736FE01F054FBCD
:10155000074602460B46009100204349FEF7DEFE97
:101560000E460546012300229B073846009900F0ED
:101570003FFE02460B4600203C49FEF7C1FE2A46CC
:101580003346FEF733FF00F031FB024608980B4666
:101590000399FEF711FE05460E46012300229B0724
:1015A0003846009900F024FE0022324BFEF7A8FED8
:1015B0000022314BFEF7A4FE0022304BFEF716FF4F
:1015C00000F014FB074602460B46029122482C49C4
:1015D000FEF796FE059108903A4628463146029B52
:1015E000FEF78EFE0F4602901B4A254B0199049888
:1015F000FEF7FCFE0022234BFEF790FE03C4164AC2
:101600001F4B28463146083CFEF7F0FE00221D4BDA
:10161000FEF784FEE160A0600F4A194B0599089817
:10162000FEF7E4FE0022174BFEF778FE61612061B1
:10163000094A134B39460298FEF7D8FE0022114B97
:10164000FEF76CFEE161A0610BB0F0BD0000084048
:1016500000002F400000FC3F182D4454FB21F93FAF
:10166000303333333333EB3F000046C000C86440AF
:1016700000002D4000407E4000528440008891C010
:10168000FB2109400080664070477047704710B5E5
:10169000FFF704F910BD10B590B030216846FEF791
:1016A0007FFD002402200F9400900D9401200390F0
:1016B0000E94102004900C9408946846FFF704FAE6
:1016C00007200C90A0200E900D9400210F940CA8E0
:1016D000FFF736F910B010BD70470000F0B5026892
:1016E0001A4B1B4C984201D0A04203D17025AA434B
:1016F0004D682A43174D184E184F98420AD0A04201
:1017000008D0174CA04205D0A84203D0B04201D067
:10171000B84205D11446032212029443CA682243F8
:101720008024A2434C69224302608A68C2620A682C
:101730008262984205D0A84203D0B04201D0B8429C
:1017400001D10969016301214161F0BD002C014013
:1017500000040040004001400044014000480140B6
:101760000020004010B5CB06DB0E0121046A994031
:101770008C430462016A9A401143016210BD30B586
:101780008468FF252D021B021343AC430B43234304
:10179000836030BD826870239A430A4307210A435D
:1017A00082607047F0B5026A520852000262056A10
:1017B000436882697024A24392080C689200144323
:1017C000022295438A68164E2A43144DA84207D038
:1017D000B04205D0134FB84202D0134FB84206D1E1
:1017E0000827BA43CF681743042297433A46A842D2
:1017F00007D0B04205D00B4DA84202D00A4DA842F6
:1018000006D103252D02AB434D691D438B692B4344
:1018100043608461496841630262F0BD002C01406D
:1018200000400140004401400048014070B5026A98
:1018300010239A430262056A426883697324240272
:10184000A3430C6824021C4320239D438B681B0187
:101850002B43124DA84208D11D46CB688026B543C4
:101860001B012B434025AB4308E00D4DA84205D09A
:101870000C4DA84202D00C4DA84208D10325AD0260
:10188000AA434D69AD0015438A6992002A4342601C
:10189000846149688163036270BD0000002C0140CF
:1018A00000400140004401400048014070B5026A18
:1018B000FF2301339A430262056A4368C2697024B8
:1018C000A24392080C6892001443012252029543ED
:1018D0008A6812022A43124DA84208D11546CA68E6
:1018E000C614B54312022A430515AA4308E00D4D5C
:1018F000A84205D00C4DA84202D00C4DA84208D1F8
:1019000003252D03AB434D692D011D438B691B013D
:101910002B434360C4614968C163026270BD00002B
:10192000002C0140004001400044014000480140BB
:1019300030B5026A01231B039A430262046A4268BB
:10194000C36973252D02AB430D682D021D4301238E
:101950005B039C438B681B0323430C4CA04208D0C1
:101960000B4CA04205D00B4CA04202D00A4CA04226
:1019700005D10124A403A2434C69A401224342607F
:10198000C56149680164036230BD0000002C01405C
:1019900000400140004401400048014030B5036A66
:1019A000046A6408640004628469F025AC4312018F
:1019B00022430A24A3430B438261036230BD30B546
:1019C000036A1024A34303628469036A0F252D036D
:1019D0001203AC432243A024A343090119438261AB
:1019E000016230BD2021020C01D010211046020AF4
:1019F00001D010460839020901D01046091F82089B
:101A000001D01046891E420801D0881E7047081A6E
:101A10007047F8B5040C8BB2264682B25E430D0CBB
:101A20001046370C58433604801900217941164678
:101A30006E43370C36048019794126466E43891966
:101A4000F8BD00004900CA020243100000D0042083
:101A50004A0D01D001221043044A490D914201D19F
:101A600002210843012800D105207047FF0700002C
:101A70008307FF22DB0E9A408907090E9940002850
:101A800008DB830809489B001B181868904308432B
:101A9000186070470007000F0838830804489B004F
:101AA0001B18D86990430843D861704700E400E0F0
:101AB00000ED00E0F8B504464F1EC80008382118B4
:101AC00015461E46086849683A4606239A4310D0D0
:101AD0002A463346FEF722FC3A46D200083AA318BB
:101AE0001A687F1E5B68FEF767FB06223B4693433E
:101AF000EED1022F23D0042F11D0062F2FD12A464A
:101B00003346FEF70BFCE36AA26AFEF755FB2A4652
:101B10003346FEF703FC636A226AFEF74DFB2A4652
:101B20003346FEF7FBFBE369A269FEF745FB2A4655
:101B30003346FEF7F3FB63692269FEF73DFB2A4655
:101B40003346FEF7EBFBE368A268FEF735FB2A4657
:101B50003346FEF7E3FB63682268FEF72DFBF8BD12
:101B6000002210B5134610460149FEF73FFC10BD98
:101B70000000F03F10B50122FEF746FD10BD10B584
:101B8000FEF71AFB10BD002210B513461046114691
:101B9000FEF72CFC10BD000010B50721024A002002
:101BA0000907FEF731FD10BD01030000034A10B51F
:101BB00000201107FEF728FD10BD000001FDFFFF0A
:101BC00002E008C8121F08C1002AFAD17047704706
:101BD000002001E001C1121F002AFBD17047000064
:101BE000014908607047000010000020F0B505466C
:101BF0000C4648008849400885B0884221DB4942AC
:101C0000411829430CD08549884203DC884211D110
:101C1000002D0FD028462146FFF7ACFF05B0F0BDE0
:101C2000002C03DD0020014605B0F0BD7C487D4955
:101C300005B0F0BD0120FFF7D3FFFFF7A4FF05B00B
:101C4000F0BD794988423FDA7849884203DC74481C
:101C5000774905B0F0BD2A46234610461946FEF7DF
:101C60005DFB0646024673480F460B460621784444
:101C7000FFF720FF32463B46FEF750FB00906E48D0
:101C8000019132463B4604217844FFF713FF324668
:101C90003B46FEF743FB00225F4BFEF78DFA024600
:101CA0000B4601990098FEF7A1FB2A462346FEF752
:101CB00035FB624A624BFEF729FB2A462346FEF7B4
:101CC00025FB574A5A4B4AE00027FF43002C4ADACB
:101CD000514E0022334628462146FEF76DFA3A4619
:101CE000FEF792FC0446024656480D460B46062176
:101CF0007844FFF7DFFE22462B46FEF70FFB0090ED
:101D00005148019122462B4604217844FFF7D2FE28
:101D100022462B46FEF702FB00223346FEF74CFA22
:101D200006460F462046294600F066FF04460D464B
:101D300032463B4601990098FEF758FB22462B4657
:101D4000FEF7ECFA3D4A3E4BFEF7DAFA22462B4606
:101D5000FEF732FA0122FEF757FC314A314BFEF70B
:101D6000D5FA05B0F0BD00222B4B28462146FEF7E0
:101D7000CDFA3A46FEF748FC05460E4600F03CFF19
:101D800000270C463A460B460490FEF715FA3A46F1
:101D900023460191009010461946FEF7BFFA3346DC
:101DA0002A46FEF7B3FA019B009AFEF71FFB00904C
:101DB0002648019133462A4606217844FFF77AFEE9
:101DC00033462A46FEF7AAFA029021480391334689
:101DD0002A4604217844FFF76DFE33462A46FEF773
:101DE0009DFA00220C4BFEF7E7F902460B460399D9
:101DF0000298FEF7FBFA2346049AFEF78FFA019B3E
:101E0000009AFEF7D9F93A462346FEF7D5F90122A2
:101E1000FEF7FAFB05B0F0BD0000F03F0000F07FD8
:101E2000182D4454FB2109400000E03F0000603CB5
:101E3000FB21F93FDE0F0000F40F0000075C1433B4
:101E400026A6913C5C0F0000720F0000920E00006D
:101E5000A80E0000F0B589B004460D464800069172
:101E600072494008884215DB7149884203DC884288
:101E700007D1002C05D020462946FFF77BFE09B08C
:101E8000F0BD6C48002D02DD6B4909B0F0BD6B4917
:101E900009B0F0BD6A49884211DA6A4988420BDA12
:101EA00020462946FFF7CEFD042801D1FFF77EFE2C
:101EB0002046294609B0F0BD0026F6435DE06D00DE
:101EC00061496D08884232DA6049884219DA002691
:101ED000012332469B0720462946FEF76DF9074647
:101EE0000191012220462946FEF78EFB0022584B25
:101EF000FEF706FA3A46019BFEF778FA04460D46CD
:101F00003BE001260022524B20462946FEF754F9B9
:101F10000746009100224E4B20462946FEF7F0F975
:101F20003A46009BFEF762FA04460D4625E0494911
:101F3000884219DA02260022474B20462946FEF73E
:101F4000EDF90022424BFEF737F9074602910022D5
:101F5000414B20462946FEF7D3F93A46029BFEF74D
:101F600045FA04460D4608E0032622462B4600208B
:101F70003A49FEF73BFA04460D4622462B461046E8
:101F80001946FEF7CBF907460B4602460191FEF7CC
:101F9000C5F90246029032480B4603910621784467
:101FA000FFF788FD3A46019BFEF7B8F900902D48EF
:101FB000019105217844039B029AFFF77BFD039B67
:101FC000029AFEF7ABF902460B4601990098002EE3
:101FD0000BDAFEF7F1F822462B46FEF79FF9224670
:101FE0002B46FEF793F909B0F0BDFEF7E5F822465F
:101FF0002B46FEF793F91C4AF6007A4493191A68A7
:102000005B68FEF77DF922462B46FEF779F9174A01
:102010007A4493191A685B68FEF778F9069A002AE1
:10202000E1DA0122D207514009B0F0BD00001044AE
:102030000000F07F182D4454FB21F93FFB21F9BF2C
:102040000000DC3F0000203E0000F33F0000E63FC0
:102050000000F03F008003400000F83F0000F0BFA8
:10206000660D0000280D0000C20C00008C0C000062
:1020700098B001261296FEF719FCFFF70CFB2E48CC
:102080004269B1050A43426142690A4016924269B7
:1020900049110A434261406908401690FFF7DCF895
:1020A000FFF738F900212548FFF7A8F80421234855
:1020B000FFF7A4F808212148FFF7A0F81F480021E6
:1020C0004030FFF79BF81D4804214030FFF796F899
:1020D0001A4D1B4F2C464034684600F087FD684679
:1020E000FFF75AF9684600F031F8206886633846F1
:1020F000FEF718FBFF202968F53048633846FEF7E5
:1021000011FB3846FEF70EFB3846FEF70BFB216845
:102110000C2088632968C82048630A48FEF702FB40
:102120000948FEF7FFFA1298401C12900328D3DDED
:1021300002201290D0E7000000100240140000209E
:10214000400D030020A10700204E0000F8B5044612
:10215000234D03CC00222B46083CFEF7DFF8214E2E
:1021600000223346FEF742F91F4F00223B46FEF79E
:1021700023F800221D4BFEF7D1F8E162A062002295
:102180002B46E168A068FEF7C9F800223346FEF747
:102190002DF900223B46FEF70FF861632063002211
:1021A0002B4661692069FEF7B9F800223346FEF735
:1021B0001DF900223B46FDF7FFFFE163A06300220B
:1021C0002B46E169A069FEF7A9F800223346FEF725
:1021D0000DF900223B46FDF7EFFF61642064F8BD76
:1021E0000000244000806640000014400000594078
:1021F000F0B51FB496B084460C460246199D189857
:102200000390490068006300490840080193002AD0
:1022100001D0012600E000269E19FE4BF6185B1047
:102220009E422BD36E00039F0296002F00D0012701
:10223000F719F84EF84BBE199E421FD3039E034672
:10224000F64F334309D03B469C4201D1002A04D0CB
:10225000019B002A05D0012604E0002039461BB06E
:10226000F0BD00269E19EE4B9E4207D8039F029EAA
:10227000002F00D00127F6199E4207D92B46604651
:102280002146189AFFF77BFC1BB0F0BD0023002C01
:1022900029DAE44EB04226DAE34EB04201DB0223F3
:1022A00021E0DE4EB0421EDBE04E070DBE19142EBB
:1022B00009DD3427BF1B039EFE400196BE40039FED
:1022C000BE420BD00FE0039F002F0CD11427BF1B81
:1022D0000646FE400196BE40864204D1019BDE07C1
:1022E000F60F02239B1B0E46164318D1002D16DA5B
:1022F000002C03D0022B01D0012B06D00220FFF7C7
:102300006FFCFFF72DFC1BB0F0BD0220FFF768FC4F
:10231000FFF726FC0122D20751401BB0F0BD039EFF
:10232000002E61D1BF4EB04220D1C148844201D1BC
:10233000002A08D0B948814209DB002D10DB18982B
:1023400029461BB0F0BD0020B4491BB0F0BD002DE4
:1023500006DA01222946D207189851401BB0F0BD79
:10236000B4497944086849681BB0F0BDAB4FB84226
:1023700025D1002D1FDA002904D0B14212D1002A44
:1023800009D018E0002A72D1A649E20F0020D20736
:1023900011431BB0F0BD0020E20F0146D2071143EC
:1023A0001BB0F0BDB14206DA234600203946FEF7E5
:1023B0001DF81BB0F0BD104621461BB0F0BDB14268
:1023C00012DA0126B607B54203D123461046194654
:1023D000FEE3994EB54207D1261E05DB1046314675
:1023E00000F00AFC1BB0F0BD67007F081646002A0B
:1023F00040D100290AD08B4A914229D1002C0EDD10
:10240000002D1CDB002011461BB0F0BD022B16D0A6
:10241000002C14D0012B12D1002C14DB0FE0002C67
:1024200028DA002D09DB012B03D000207D491BB0E9
:10243000F0BD002081491BB0F0BD012B03D000206E
:1024400001461BB0F0BD00200121C9071BB0F0BD43
:10245000724A91420ED1002C01DA002B17D0022BC8
:1024600006D00020C043FEF739F81BB0F0BD90E263
:102470000120F8E7E217521C94461A4307D00022C5
:102480000892664C62465B1E1A4307D009E00120A1
:10249000FFF7A6FBFFF777FB1BB0F0BD0022644CF3
:1024A0000892674A90427DDD664B674A98421FDD7D
:1024B000914202DC002D05DB4DE05848814217DBDC
:1024C000002D48DD0220FFF78BFBFFF765FB05467B
:1024D0000E460022534B21460898FDF71FFF084681
:1024E00071004908C00FC007014328461BB0F0BD6A
:1024F000914215DA002D2EDA0220FFF771FBFFF76B
:102500004BFB05460E460022464B21460898FDF738
:1025100005FF72005208C80FC0070243114617E0BA
:102520003E4B994223DD002D15DD0220FFF758FBBD
:10253000FFF732FB05460E4600223A4B214608982B
:10254000FDF7ECFE084671004908C00FC0070143C3
:1025500028461BB0F0BD0220FFF742FBFFF726FB29
:1025600049004908E20FD20711431BB0F0BD002219
:1025700030463946FDF7C4FE012205460E46D243D9
:10258000FEF742F8314A324BFDF7C0FE2A46334689
:10259000FDF7C4FE0022284BFDF7B8FE07462A4689
:1025A000334600E064E0039110461946FDF7B6FE9D
:1025B0003A46039BFDF7B2FE0746032209915207F4
:1025C000244B28463146FDF7A9FE07910C90224A7C
:1025D000204B38460999FDF7A1FE074601911F4A95
:1025E0001F4B28463146FDF799FE3A46019BFDF701
:1025F00087FE07460B460246099107990C98FDF79E
:10260000DBFD00250E462846079B0C9AFDF778FE59
:102610003A4627E0FFFF1F00FFFF0F000000F03FDA
:102620000000E0FF0000F07F0000404301FCFFFFDE
:102630000000F0BF5A0A00000000E03F0000F0FF79
:102640000000E0410000F043FFFFEF3F55555555B6
:102650005555D53F4715F73FFE822B6544DF5DF8A2
:102660000BAE543E099BFDF751FE02460B4652E16C
:10267000012500202D05A94207DA352230463946CA
:10268000FDF7C2FF06463420C0430A151218FE4863
:10269000101803900803FD49000B01430F46FC4945
:1026A000884201DC002003E0FA49884202DA012076
:1026B000119005E0002011900398401C7F1B0390AF
:1026C00011980597C200F4480F9278448018436827
:1026D0000268394630460D930292FDF711FE0791CC
:1026E0000C9030460D9B029A0599FDF765FD024658
:1026F0000B460020E549FDF779FE09910490079B00
:102700000C9AFDF70BFE129000201090E3480D4646
:10271000784400680E900121781049070843119908
:102720000D9B890440180121C90447183946029AB3
:102730000E98FDF7E5FD3246059BFDF7E7FD0246E5
:102740000B4629461098FDF7E9FD064602913B46E7
:1027500029460E9A1098FDF7E1FD079B0C9AFDF7AC
:10276000D5FD3246029BFDF7CBFD099B049AFDF790
:10277000D5FD0591129A0A902B4610461946FDF791
:10278000CDFD06460246C6480F460B460621784454
:10279000FFF790F932463B460091049010461946E7
:1027A000FDF7BCFD009B049AFDF7B8FD06460F46F9
:1027B0002B461946129A1098FDF7FEFC059B0A9AC3
:1027C000FDF7ACFD32463B46FDF7F6FC109A07914B
:1027D00004902B4610461946FDF7A0FDB14E00228D
:1027E000334609910290FDF7E7FC079B049AFDF739
:1027F000E3FC00200746024633460091FDF780FDCA
:10280000099B029AFDF77CFD079B049AFDF77EFD6C
:1028100006460D913A462946009B1098FDF77EFD2D
:1028200007910C902B463046129A0D99FDF776FDD4
:1028300005460E463A46009B05990A98FDF76EFD3F
:1028400033462A46FDF7B8FC02460B460746099177
:1028500007990C98FDF7B0FC00250E462846079B0B
:102860000C9AFDF74DFD3A46099BFDF74FFD0746D3
:102870000722099152078C4B31462846FDF74EFD41
:1028800007910090894A884B38460999FDF746FD23
:1028900007460191864A874B31462846FDF73EFDA3
:1028A0003A46019BFDF788FC834B7B440F9A9B18AB
:1028B0001A685B68FDF780FC029009910398FDF7A8
:1028C0000DFE05910490099B029A07990098FDF767
:1028D00073FC7A4B7B440F9A9B181A685B68174607
:1028E0000393FDF769FC059B049AFDF765FC0E4612
:1028F0002846059B049AFDF703FD3A46039BFDF726
:10290000FFFC079B009AFDF7FBFC099B029AFDF771
:10291000FDFC02460B46199900200C900F461898B2
:10292000FDF7FCFC029104903B460C9A199918980B
:10293000FDF7E6FC2A463346FDF7F0FC029B049ABD
:10294000FDF73AFC09910E902A46334639460C9819
:10295000FDF7E4FC06460F46099B0E9AFDF72CFC9A
:10296000574A0D46914220DB5242AA18024310D129
:1029700032463B46FDF7C4FC04900391514A524B4A
:1029800009990E98FDF718FC039B049AFDF7A4FE25
:102990001ED20220FFF724F9FFF7FEF8490049088C
:1029A000E20FD20711431BB0F0BD6A00474B52083B
:1029B0009A420DD3464AAA18024300D0CBE53246CC
:1029C0003B46FDF79DFC099B0E9AFDF785FEF5D968
:1029D0006800002340082C490393020D3D4B521818
:1029E000984223DD01200005521CD04042195000BE
:1029F000400D401838497944096813468C463749D8
:102A0000C1408B4312030121120B090551181422F6
:102A1000101AC1400391002D01DA4842039062462A
:102A200030463946FDF76CFC06460F4632463B46BB
:102A300009990E98FDF7C0FB00252A46284B284629
:102A40000591FDF76BFC07910C90264A264B284612
:102A50000599FDF763FC0091029032463B462846FB
:102A60000599FDF74DFC099B0E9AFDF74FFC1F4A97
:102A70001F4BFDF753FC009B029AFDF79DFB074699
:102A80000B460246099135E001FCFFFF0000F03FD4
:102A90008E9803007AB60B006A060000AC060000B0
:102AA000D60500000000084009C7EE3FFD033ADCF0
:102AB000F5015B14E02F3EBEAA0400007004000084
:102AC00000009040FE822B654715973C00CC90405B
:102AD00000346F3F0000E03FC6030000FFFF0F001F
:102AE000432EE63F396CA80C615C20BEEF39FAFE3C
:102AF000422EE63F07990C98FDF75EFB05460E4611
:102B0000079B0C9AFDF7FCFB3A46099BFDF7FEFB81
:102B100009912A4633460E9010461946FDF7FEFBF2
:102B2000074602462F480B46059105217844FEF7DB
:102B3000C1FF3A46059BFDF7F1FB2A463346FDF7F8
:102B4000E5FB0746019128463146099B0E9AFDF7A1
:102B5000E5FB099B0E9AFDF72FFB012304910C90D6
:102B600000229B0738460199FDF7CAFB05910E909C
:102B70003A4628463146019BFDF7D0FB059B0E9A4D
:102B8000FDF734FC049B0C9AFDF7BAFB2A4633464A
:102B9000FDF7B6FB0022144BFDF7B8FB0646039881
:102BA0000D46000541190915002912DC3046294659
:102BB000039AFDF729FDFEF745FF042801D1FEF732
:102BC000F5FF30462946039AFDF71EFD064601E053
:102BD00004E029180B46324621460898FDF79EFB73
:102BE0001BB0F0BD680200000000F03F0122816CC4
:102BF0000265C16470470000F8B506460C46FDF753
:102C000019FD051E0F4600D00120014349000B4865
:102C10004908411AC90F0DD0002E01D0012100E052
:102C200000210C4361004908401AC00F02D1012065
:102C3000FEF7D6FF28463946F8BD00000000F07FB9
:102C4000000000000000000001020304060708095C
:102C5000555555555555C53F7D6FEB0312D6D4BF1D
:102C60005544880E55C1C93F3B8F68B52882A4BF23
:102C700088B20175E0EF493F09F7FD0DE13D023FE4
:102C80004B2D8A1C273A03C0C88A599CE52A00406C
:102C900059018D1B6C06E6BF82922EB1C5B8B33FB9
:102CA0004FBB610567ACDD3F182D4454FB21E93F64
:102CB0009BF681D20B73EF3F182D4454FB21F93F53
:102CC000E2652F227F2B7A3C075C143326A6813CD9
:102CD000BDCBF07A8807703C075C143326A6913C84
:102CE000C4EB98999999C9BF711623FEC671BCBFF0
:102CF0006D9A74AFF2B0B3BF9AFDDE522DDEADBF58
:102D00002F6C6A2C44B4A2BF0D5555555555D53F6F
:102D1000FF8300922449C23F6E204CC5CD45B73F8A
:102D2000513DD0A0660DB13FEB0D76244B7BA93F02
:102D300011DA22E33AAD903F000000000000F03FBE
:102D4000000000000000F83F00000000000000004C
:102D50000000004003B8E23F000000000000000057
:102D600006D0CF43EBFD4C3E033333333333E33FE5
:102D7000FFAB6FDBB66DDB3F4D268F515555D53F11
:102D800001411DA96074D13F65DBC9934A86CD3FDF
:102D9000EF4E454A287ECA3F3E5555555555C53FCD
:102DA00093BDBE166CC166BF2CDE25AF6A56113FBF
:102DB000F16BD2C541BDBBBED0A4BE726937663EC1
:102DC0000000000000000000E82D000800000020C6
:102DD00014000000C01B0008FC2D00081400002097
:102DE00084040000D01B0008010000000400000063
:0C2DF0000000000000127A00000000004B
:04000005080000B53A
:00000001FF
