:020000040800F2
:1000000050040020C9000008A90D0008ED0C0008EC
:1000100000000000000000000000000000000000E0
:10002000000000000000000000000000AD0D00080E
:100030000000000000000000AB0D0008AF0D00083C
:10004000DB00000800000000DB000008DB00000807
:10005000DB000008DB000008DB000008DB00000814
:1000600000000000DB000008DB000008DB000008E7
:10007000DB000008DB000008DB00000800000000D7
:10008000DB000008DB00000800000000DB000008C7
:10009000DB000008DB000008DB000008DB000008D4
:1000A000DB000008DB000008DB000008DB000008C4
:1000B000DB0000080348854600F08EF80048004742
:1000C0009911000850040020044880470448004764
:1000D000FEE7FEE7FEE7FEE7FEE7FEE7F90D0008B4
:1000E000B500000830B50B4601460020202201244F
:1000F00009E00D46D5409D4205D31D469540491B5C
:100100002546954040191546521E002DF1DC30BDA4
:10011000F0B51FB40646002082B005464024019188
:1001200000901BE0019922460F46304600F020F86F
:10013000049A059B801A994110D31046194622460D
:1001400000F039F8361A8F4101972246012000212C
:10015000009F00F030F838184D4100902046641E92
:100160000028DFDC019B00982946324607B0F0BD2D
:1001700010B5202A04DB0846203AD040002110BDEB
:100180000B46D340D0402024A21A91400843194680
:1001900010BDD2B201E00270401C491EFBD2704774
:1001A0000022F6E710B513460A4604461946FFF743
:1001B000F0FF204610BD10B5202A04DB0146203A8E
:1001C0009140002010BD914020239C1A0346E3403B
:1001D0001943904010BD0000064C0125064E05E075
:1001E000E36807CC2B430C3C98471034B442F7D358
:1001F000FFF764FF201200084012000870B50446A3
:1002000000F0B2F80546601C02D0044800782418BB
:1002100000F0AAF8401BA042FAD370BD00000020F5
:10022000F8B500238DE001249C40A44622407DD0F7
:100230004C68022C01D0122C0CD1DC08A400271829
:100240003C6A5D07ED0E0F26AE40B4430E69AE402A
:1002500026433E6205685E000324B4400F79A5433F
:10026000BF07BF0FB7402F4307604D68012D05D072
:10027000022D03D0112D01D0122D0ED18568CF682B
:10028000A543B7402F43876047686546AF430D7964
:10029000ED06ED0F9D403D434560C568A5438C6864
:1002A000B4402C43C4604C68E40049D5284CA5698F
:1002B00001263543A561A4699D0834400094254C6E
:1002C000AD002F19BC689D072E0F0F25B540AC431C
:1002D0000925ED06A84201D100250FE01E4DA842D8
:1002E00001D101250AE01D4DA84201D1022505E0FA
:1002F0001B4DA84201D1032500E00525B54025434B
:10030000BD60184C25684E689543F60300D515432B
:10031000256065684E689543B60300D51543656052
:10032000A5684E689543F60202D500E008E0154343
:10033000A560E5684E689543B60200D51543E560B3
:100340005B1C0A681446DC4000D06CE7F8BD000076
:10035000001002400000014000040048000800486E
:10036000000C00480004014001488068704700000C
:100370000000002002488168027889188160704777
:100380000000002010B506480168102211430160EA
:10039000002000F007F800F027F8002010BD000052
:1003A0000020024070B504460D4D7D202978C00024
:1003B000FFF798FE01460B480068FFF793FE00F038
:1003C000B3FA002809D1042C07D200222146401E8E
:1003D00000F01EF800206C6070BD012070BD0000B0
:1003E000000000200C00002008B5084881690122A7
:1003F00011438161816911400091C26901040A437E
:10040000C261C0690840009008BD000000100240B1
:1004100010B500F08FFE10BDF8B50F46060059D09C
:100420003A4D2868C007C00FB84209D22868400872
:100430004000384328602868C007C00FB84249D13F
:100440003068334C81070CD5400704D5606807211C
:100450000902084360606068F0218843B16808437E
:1004600060603078C00726D0706801280ED02168FF
:1004700002280ED0890700292CDA616889088900D2
:1004800001436160FFF770FF00900DE02168890370
:10049000F1E78901EFE7FFF767FF0099411A1D486F
:1004A000814201D90320F8BD60680C2108407168C1
:1004B00089008842EFD12868C007C00FB8420BD925
:1004C000286840084000384328602868C007C00FEB
:1004D000B84201D00120F8BD3078400706D56068E9
:1004E000072109028843F1680843606000F018F8AA
:1004F0006168094A0906090F515CC840074908604C
:100500000020FFF74FFF0020F8BD00000020024050
:100510000010024088130000101200080C00002098
:1005200010B514A30FCB88B06C460FC415A30FCB26
:100530000FC4184A51680C200B4603401648042B80
:1005400016D0082B14D18B021B0F6C46E45CD26AC8
:1005500004AB1207120F9A5CC90305D50023194694
:10056000FFF7D6FD214601E020460C4900F0CAFD08
:1005700008B010BD02030405060708090A0B0C0D9C
:100580000E0F10100102030405060708090A0B0CE0
:100590000D0E0F100010024000127A0000093D00FD
:1005A000FEB5040070D02078DC4DC0074AD06868E2
:1005B0000007800F012807D068680007800F022815
:1005C00009D16868C00306D5286880033AD56068F9
:1005D0000028E7D036E06168012914D001208004AA
:1005E000002901D0052914D02A68012109048A4371
:1005F0002A602968814329606068002816D0FFF7C7
:10060000B3FE06460EE0286801210904084328606D
:10061000F2E7296801432960F5E7FFF7A5FE801B93
:1006200064286ED828688003F7D50BE0FFF79CFE9E
:10063000064604E0FFF798FE801B6428F1D828687E
:100640008003F7D420780126800700283CDA686808
:100650000007800F07D068680007800F022809D1C3
:100660006868C00306D42868800716D5E0680128AA
:100670000AD112E0E0680028286816D030432860CC
:10068000FFF772FE074605E043E1FFF76DFEC01B72
:100690000228C6D828688007F7D52868F82188433B
:1006A0002169C900084328600EE040084000286026
:1006B000FFF75AFE074604E0FFF756FEC01B02286C
:1006C000AFD828688007F7D42078000722D5E069E2
:1006D0000028686A0ED030436862FFF745FE07467F
:1006E00004E0FFF741FEC01B02289AD8686A800721
:1006F000F7D50FE0400840006862FFF735FE074677
:1007000005E09DE0FFF730FEC01B022889D8686A2B
:100710008007F7D4207804274007002860DA0020FB
:100720000190E869C00008D4E969B8060143E961AD
:10073000E969014001200091019079480168C905EB
:1007400011D40168821511430160FFF70DFE00907E
:1007500005E0FFF709FE0099401A642870D8704838
:100760000068C005F5D5A06801280AD0002801D08E
:10077000052810D0286A400840002862286AB8433B
:1007800001E0286A30432862A068002812D0FFF7F1
:10079000EBFD00900AE0286A38432862F1E7FFF792
:1007A000E3FD0099411A5F48814249D8286A8007D1
:1007B000F5D50DE0FFF7D8FD009006E0FFF7D4FD7A
:1007C0000099411A574881423AD8286A8007F5D4DF
:1007D0000198002804D0E969012000078143E961FC
:1007E0002078C00635D5606901280CD0401D686BA3
:1007F00023D038436863686B400840006863FFF7A4
:10080000B3FD064622E0686B38436863686B30438B
:100810006863FFF7A9FD064604E0FFF7A5FD801B0E
:1008200002285BD8686B8007F7D5686BF82188438E
:10083000A169C900084368630BE0B8436863F4E743
:100840004CE0FFF791FD801B022847D8686B8007BA
:10085000F7D4206A00285ED069680907890F022949
:1008600042D0012636060228286805D0B043286009
:10087000FFF77AFD044633E0B0432860FFF774FDCC
:10088000074604E0FFF770FDC01B022826D8286841
:100890008001F7D4E86AE16A000900010843E862D0
:1008A000616AA06A084369683D22120491430843C3
:1008B0006860286830432860FFF756FD044604E06E
:1008C000FFF752FD001B022808D828688001F7D5E1
:1008D00021E0FFF749FD001B022801D90320FEBDDE
:1008E00028688001F5D416E00128F8D06868E96A24
:1008F00001221204636A02409A420AD10907E26A9D
:10090000090F914205D10F2189040840A16A88424C
:1009100001D00120FEBD0020FEBD000000100240FD
:100920000070004088130000094910B5401E88423D
:1009300001D9012010BD074C60610321081F00F0A0
:10094000F9FB0020A06107202061002010BD0000FD
:10095000FFFFFF0000E000E030B5034620331A7FC0
:10096000012A26D001221A770325CA682D02AA433C
:100970008D6800242A430125AD02AA434D68006812
:100980002A430125ED02AA430D682A4301252D03C0
:10099000AA430D692A4301256D03AA434D69C9691C
:1009A0002A430125AD03AA430A4342641C77002071
:1009B00030BD022030BD0000F0B502462032137F6A
:1009C000012B1ED001251577022353770668746822
:1009D000B3687027BC430F682743776000680A4CF0
:1009E000A04205D0094CA04202D0094CA04204D13B
:1009F00080244968A343194381605577002010770C
:100A0000F0BD0220F0BD0000002C014000040040B9
:100A10000040014070B5040005D025462035687FB0
:100A2000002802D006E0012070BD00202877204673
:100A300000F00AF802206877211D206800F0DEF936
:100A400001206877002070BD08B50068054988421C
:100A500007D105488269C1140A4382618069084050
:100A6000009008BD002C014000100240F8B505467A
:100A700004462035287F012817D001262E77022032
:100A80006877226890687727FF23B8431B02984352
:100A900090600A68502A31D00EDC202A4BD006DC48
:100AA000002A48D0102A3AD145E00220F8BD302A69
:100AB00041D0402A33D136E0602A27D0702A12D0A4
:100AC00001200003121A2AD0824228D1CB684A683A
:100AD0008968206800F0E3F92068816801229203A8
:100AE000114381601BE0CB684A688968206800F088
:100AF000D6F9216888683843886010E0CA68496878
:100B0000206800F0DBFA5021206806E0CA684968D6
:100B1000206800F0E4FA6021206800F0CBF96E77DD
:100B200000202877F8BDCA684968206800F0C6FA36
:100B300040212068F1E711462068EEE710B586B045
:100B4000044614216846FFF72BFB0E4920688842B3
:100B500016D10D484269012149040A4342614069A6
:100B6000084005900720000200900020022102901A
:100B700003900191049109206946C006FFF750FBDC
:100B800006B010BD002C014000100240F8B506462A
:100B900004462036307F0D4601280DD001203077E5
:100BA000022070770427002A08D0042A16D0082AC9
:100BB0002AD00C2A4DD137E00220F8BD206800F081
:100BC00081F9206881690822114381612068816967
:100BD000B9438161206881692A6912E0206800F0C8
:100BE000B5F9206882690121C9020A43826120683F
:100BF00081690122920291438161206881692A6999
:100C000012021143816124E0206800F0DFF92068BE
:100C1000C26908210A43C2612068C169B943C16140
:100C20002068C1692A6912E0206800F011FA206882
:100C3000C1690122D2021143C1612068C269012148
:100C400089028A43C2612068C1692A69120211437C
:100C5000C1610120707700203077F8BD70B50400C5
:100C600005D025462035687F002802D006E0012007
:100C700070BD00202877204600F00AF8022068772F
:100C8000211D206800F0BAF801206877002070BDAF
:100C90007047000010B504460068012200F0F2F829
:100CA0000E482168814208D00D48814205D00D4888
:100CB000814202D00C48814204D1486C0122D20307
:100CC00010434864206881684907490F062903D00A
:100CD0000168012211430160002010BD002C014079
:100CE000004001400044014000480140FEE7000090
:100CF00030B595B000240F9410941194129413946D
:100D00001C2168461494FFF74BFA202107A8FFF72F
:100D100047FA244822490160C8216425021D32C2D5
:100D2000046144618461FFF775FE012000030F90A8
:100D30000FA91C48FFF79AFE1A48FFF78FFF13947C
:100D400013A918481494FFF737FE60200594019406
:100D5000009002940394049400226946069411487A
:100D6000FFF714FF042269460E480195FFF70EFFB6
:100D7000082269460B480195FFF708FF01200794F8
:100D8000400309940C9008940A940B9407A90E94BC
:100D90000448FFF7E1FD0348FFF7D0FE15B030BD72
:100DA000002C01401000002070477047704710B5BC
:100DB000FFF7E0FA10BD10B590B030216846FFF79C
:100DC000EFF9002402200F9400900D94012003906D
:100DD0000E94102004900C9408946846FFF7E0FBF2
:100DE00007200C90A0200E900D9400210F940CA8C9
:100DF000FFF712FB10B010BD70470000F0B502689D
:100E00001A4B1B4C984201D0A04203D17025AA4333
:100E10004D682A43174D184E184F98420AD0A042E9
:100E200008D0174CA04205D0A84203D0B04201D050
:100E3000B84205D11446032212029443CA682243E1
:100E40008024A2434C69224302608A68C2620A6815
:100E50008262984205D0A84203D0B04201D0B84285
:100E600001D10969016301214161F0BD002C0140FC
:100E7000000400400040014000440140004801409F
:100E80000020004010B5CB06DB0E0121046A99401A
:100E90008C430462016A9A401143016210BD30B56F
:100EA0008468FF252D021B021343AC430B432343ED
:100EB000836030BD826870239A430A4307210A4346
:100EC00082607047F0B5026A520852000262056AF9
:100ED000436882697024A24392080C68920014430C
:100EE000022295438A68164E2A43144DA84207D021
:100EF000B04205D0134FB84202D0134FB84206D1CA
:100F00000827BA43CF681743042297433A46A842BA
:100F100007D0B04205D00B4DA84202D00A4DA842DE
:100F200006D103252D02AB434D691D438B692B432D
:100F300043608461496841630262F0BD002C014056
:100F400000400140004401400048014070B5026A81
:100F500010239A430262056A42688369732424025B
:100F6000A3430C6824021C4320239D438B681B0170
:100F70002B43124DA84208D11D46CB688026B543AD
:100F80001B012B434025AB4308E00D4DA84205D083
:100F90000C4DA84202D00C4DA84208D10325AD0249
:100FA000AA434D69AD0015438A6992002A43426005
:100FB000846149688163036270BD0000002C0140B8
:100FC00000400140004401400048014070B5026A01
:100FD000FF2301339A430262056A4368C2697024A1
:100FE000A24392080C6892001443012252029543D6
:100FF0008A6812022A43124DA84208D11546CA68CF
:10100000C614B54312022A430515AA4308E00D4D44
:10101000A84205D00C4DA84202D00C4DA84208D1E0
:1010200003252D03AB434D692D011D438B691B0126
:101030002B434360C4614968C163026270BD000014
:10104000002C0140004001400044014000480140A4
:1010500030B5026A01231B039A430262046A4268A4
:10106000C36973252D02AB430D682D021D43012377
:101070005B039C438B681B0323430C4CA04208D0AA
:101080000B4CA04205D00B4CA04202D00A4CA0420F
:1010900005D10124A403A2434C69A4012243426068
:1010A000C56149680164036230BD0000002C014045
:1010B00000400140004401400048014030B5036A4F
:1010C000046A6408640004628469F025AC43120178
:1010D00022430A24A3430B438261036230BD30B52F
:1010E000036A1024A34303628469036A0F252D0356
:1010F0001203AC432243A024A34309011943826194
:10110000016230BDF8B5040C8BB2264682B25E4354
:101110000D0C1046370C58433604801900217941D4
:1011200016466E43370C36048019794126466E43C5
:101130008919F8BD8307FF22DB0E9A408907090E43
:101140009940002808DB830809489B001B18186891
:1011500090430843186070470007000F0838830861
:1011600004489B001B18D86990430843D861704716
:1011700000E400E000ED00E002E008C8121F08C132
:10118000002AFAD170477047002001E001C1121F08
:10119000002AFBD17047000008B50524FFF7F2F8DC
:1011A000FFF709FE18484269012189050A43426197
:1011B00042690A400092426949110A43426140690A
:1011C00008400090FFF794FD00211048FFF762FDF2
:1011D00004210E48FFF75EFD08210C48FFF75AFD79
:1011E0007D270A4E3F01651D306844633068846383
:1011F0003846FFF703F83068456330688563384642
:10120000FEF7FCFFF0E70000001002401000002095
:1012100000000000000000000102030406070809A6
:1012200040120008000000201000000078110008A3
:10123000501200081000002040040000881100082F
:1012400001000000040000000000000000127A000D
:04000005080000B53A
:00000001FF
